:200000000C9462000C948A000C948A000C948A000C948A000C9408030C948A000C948A0037
:200020000C948A000C948A000C948A000C948A000C948A000C948A000C948A000C948A0070
:200040000C9449040C948A000C9404060C948A000C948A000C948A000C948A000C948A000D
:200060000C948A000C948A0000000000240027002A0000000000250028002B00000000003F
:20008000230026002900040404040404040402020202020203030303030301020408102071
:2000A0004080010204081020010204081020000000070002010000030406000000000000EB
:2000C0000000000711241FBECFEFD8E0DEBFCDBF11E0A0E0B1E0EAE4F0E102C005900D92D1
:2000E000AE31B107D9F711E0AEE1B1E001C01D92A43DB107E1F710E0C4ECD0E004C02297DA
:20010000FE010E941F08C23CD107C9F70E943A070C9423080C9400005C9A5F985C9898E0DA
:2001200010C087FF07C05F980000289A00005F9A000006C05F980000289800005F9A00007A
:20014000880F915070F75F9808958F770E948C0008955F9898E010C087FF07C05F980000D8
:20016000289A00005F9A000006C05F980000289800005F9A0000880F915070F75F980895DB
:200180001F93162F80680E948C00812F0E94A9005C9A1F91089580911E018F5F80931E01C4
:2001A000873010F010921E01E0911E01F0E0EE5FFE4F89E760810E94C00008955F9880E026
:2001C00090E0880F5F9A0000199981605F9800009F5F9830B1F708950E94A5000E94DE00C3
:2001E0005C9A089583E00E94EC008093320184E00E94EC008093330186E060E00E94C000F4
:2002000087E061E00E94C00089E06FE70E94C0008AE065E00E94C0008BE062E10E94C00092
:200220008CE065E10E94C0008DE06DEF0E94C0008EE060E00E94C00080E76CE20E94C00058
:200240008EE667E20E94C0008FE662E50E94C0008CE16AE10E94C00080E261EA0E94C00038
:2002600081E260E20E94C00082E26EE40E94C00083E265EA0E94C00084E260E00E94C00041
:2002800085E26BE10E94C0008DE160E40E94C0008EE16AE00E94C0008AE26EE10E94C000FD
:2002A00080E36CE80E94C00082E363EF0E94C00083E362E40E94C00084E366E00E94C000EF
:2002C00086E36DE20E94C00087E364ED0E94C00088E360E00E94C00089E360E00E94C000CC
:2002E0008AE364E40E94C0008BE36FE60E94C0008CE36DE40E94C0008DE36FE60E94C00079
:200300008EE368E00E94C0008FE364E40E94C00080E46FE60E94C00081E46DE40E94C00073
:2003200082E46FE60E94C00083E46FEF0E94C00084E46FEF0E94C00085E46FEF0E94C00028
:2003400086E46FEF0E94C0008DE667E00E94C00089E760E00E94C0008AE766E00E94C0002C
:2003600081E763E20E94C00082E760E30E94C00083E760E00E94C00084E760E00E94C00047
:2003800085E763E50E94C00086E76DE70E94C00087E760E00E94C000089583E00E94EC0086
:2003A0008093320184E00E94EC008093330187E061E00E94C00008950E94CD0188E063E0FC
:2003C0000E94C00088E060E00E94C00084E366E00E94C0008EE368E00E94C000609128016D
:2003E0008FE70E94C000609129018FE70E94C00060912A018FE70E94C00060912B018FE7AB
:200400000E94C00060912C018FE70E94C00060912D018FE70E94C00080911F01882331F090
:2004200010921F0110922E0110922F0160912E018FE70E94C00060912F018FE70E94C00066
:2004400085E064E00E94C00083E00E94EC008093320184E00E94EC008093330187E069E071
:200460000E94C0004A99FECF0E94CD010895EF92FF920F931F932AE030E040E050E00E94EB
:20048000020879018A0188E098E5AFEFBFEFE80EF91E0A1F1B1F96E0EE0CFF1C001F111FD2
:2004A0009A95D1F7552717FD5A95412F302F2F2D86E7622F0E94C00087E76E2D0E94C000D0
:2004C0001F910F91FF90EF9008958091240190912501A0912601B09127010196A11DB11DC0
:2004E0008093240190932501A0932601B09327010B97A105B10560F08AE060E00E945905BE
:20050000109224011092250110922601109227018BE00E94B105892B79F580912001909181
:200520002101A0912201B09123010196A11DB11D8093200190932101A0932201B093230187
:200540004F97A105B10500F11092200110922101109222011092230181E080931F01109220
:2005600024011092250110922601109227018AE061E00E945905089510922001109221012C
:20058000109222011092230108958F929F92AF92BF92CF92DF92EF92FF920F931F939B017B
:2005A000882E992400D000D0442737FD4095542F8FEF90E0A0E0B0E0EDB7FEB781839283C1
:2005C000A383B483CA01B9012DED35E040E050E0E3E9EE2EE1E1FE2E012D112DAA24BB24CB
:2005E00065010E94780788E291E0880E991EF40160830F900F900F900F901F910F91FF9019
:20060000EF90DF90CF90BF90AF909F908F9008951F920F920FB60F9211242F933F934F93B1
:200620005F936F937F938F939F93AF93BF93EF93FF934B9B2BC0609184007091850010924A
:20064000850010928400809130018E3028F4809130018F5F809330012FE16134720758F0F9
:2006600080913001809331011092300110920101109200010BC0CB018D5D9540875B9B40C6
:2006800028F48091300181500E94C502FF91EF91BF91AF919F918F917F916F915F914F91F2
:2006A0003F912F910F900FBE0F901F901895AF92BF92CF92DF92EF92FF920F931F938BE00E
:2006C0000E94B105892B89F568EE73E080E090E00E949F048AE060E00E9459050E949104F1
:2006E0007B018C01F0EAAF2EFFE0BF2EC12CD12CA60EB71EC81ED91E8BE00E94B105892BA7
:2007000079F4EA14FB040C051D0550F40E9491047B018C01F1CF8DE660E00E94C00005C01E
:200720008BE00E94B105892BB1F71F910F91FF90EF90DF90CF90BF90AF900895CF93DF936F
:200740000E94F20068E373EA86E090E00E94370278948AE061E00E9459058BE061E00E94A7
:2007600059052D9A64E670E080E090E00E949F040E9457032D988AE060E00E9459058EE0CC
:2007800060E00E94590583E061E00E9459051092010110920001C1E0D0E08CE00E94EC00E3
:2007A000882351F42D9A0E94F20068E373EA86E090E00E9437022D982C9A0E94DC01D09328
:2007C0000101C09300012C980E94CB000E94650264E070E080E090E00E949F04DECF1F9381
:2007E00089E060E00E94330588E061E00E94330587E061E00E94330582E060E00E943305F5
:2008000084E061E00E9433058DE061E00E9433058CE061E00E9433058AE061E00E943305C5
:200820008BE060E00E94330583E060E00E9433058EE061E00E94330581EC91E040E052ECF1
:2008400061E070E00E94350688E080936D008091680084608093680010E0812F68EB7BE01C
:200860000E94C5021F5F1830C1F710928100109285001092840085E69AEE90938700809371
:20088000860082E0809380008AE1809381001F9108951F920F920FB60F9211242F933F9310
:2008A0008F939F93AF93BF938091380190913901A0913A01B0913B0130913C010196A11D6F
:2008C000B11D232F2D5F2D3720F02D570196A11DB11D20933C018093380190933901A09385
:2008E0003A01B0933B018091340190913501A0913601B09137010196A11DB11D8093340155
:2009000090933501A0933601B0933701BF91AF919F918F913F912F910F900FBE0F901F906F
:2009200018958FB7F894209138013091390140913A0150913B018FBFB901CA0108959B011E
:20094000AC017FB7F8948091340190913501A0913601B091370166B5A89B05C06F3F19F0D0
:200960000196A11DB11D7FBFBA2FA92F982F8827860F911DA11DB11D62E0880F991FAA1FB6
:20098000BB1F6A95D1F7BC012DC0FFB7F8948091340190913501A0913601B0913701E6B5B1
:2009A000A89B05C0EF3F19F00196A11DB11DFFBFBA2FA92F982F88278E0F911DA11DB11D09
:2009C000E2E0880F991FAA1FBB1FEA95D1F7861B970B885E9340C8F2215030404040504075
:2009E00068517C4F211531054105510571F60895789484B5826084BD84B5816084BD85B56A
:200A0000826085BD85B5816085BDEEE6F0E0808181608083E1E8F0E01082808182608083BB
:200A2000808181608083E0E8F0E0808181608083E1EBF0E0808184608083E0EBF0E0808134
:200A400081608083EAE7F0E080818460808380818260808380818160808380818068808372
:200A60001092C1000895482F50E0CA0186569F4FFC0124914A575F4FFA0184918823C1F0CD
:200A8000E82FF0E0EE0FFF1FE859FF4FA591B491662341F49FB7F8948C91209582238C9314
:200AA0009FBF08959FB7F8948C91822B8C939FBF0895482F50E0CA0182559F4FFC0124918C
:200AC000CA0186569F4FFC0134914A575F4FFA019491992309F444C0222351F1233071F058
:200AE000243028F42130A1F0223011F514C02630B1F02730C1F02430D9F404C08091800003
:200B00008F7703C0809180008F7D8093800010C084B58F7702C084B58F7D84BD09C08091AB
:200B2000B0008F7703C08091B0008F7D8093B000E92FF0E0EE0FFF1FEE58FF4FA591B4919A
:200B4000662341F49FB7F8948C91309583238C939FBF08959FB7F8948C91832B8C939FBF29
:200B60000895682F70E0CB0182559F4FFC012491CB0186569F4FFC0144916A577F4FFB01BB
:200B80009491992319F420E030E03CC0222351F1233071F0243028F42130A1F0223011F576
:200BA00014C02630B1F02730C1F02430D9F404C0809180008F7703C0809180008F7D809373
:200BC000800010C084B58F7702C084B58F7D84BD09C08091B0008F7703C08091B0008F7D1E
:200BE0008093B000892F90E0880F991F84589F4FFC01A591B4918C9120E030E0842311F0A4
:200C000021E030E0C90108951F920F920FB60F9211242F933F934F938F939F93EF93FF9391
:200C20004091C600E091BD01F091BE0131969F012F77307031978091BF019091C001281747
:200C4000390739F0E35CFE4F40833093BE012093BD01FF91EF919F918F914F913F912F9119
:200C60000F900FBE0F901F901895CF93DF93EC019A01AB01E885F985203081EE380780E0BC
:200C8000480780E0580709F449C081E090E00A8802C0880F991F0A94E2F7808360E079E0B9
:200CA0008DE390E00E9402082150304040405040CA01B90122E030E040E050E00E94020824
:200CC000EC81FD813083EE81FF812083EA85FB85208141E050E0CA010E8402C0880F991F95
:200CE0000A94E2F7282B2083EA85FB852081CA010F8402C0880F991F0A94E2F7282B20831B
:200D0000EA85FB858081088802C0440F551F0A94E2F7842B8083DF91CF910895108220E1A1
:200D200030E0CECFDC011296ED91FC911397E058FF4F2191319180819181281B390B2F7792
:200D40003070C9010895DC011296ED91FC911397EE57FF4F2081318192918291E058F040CE
:200D60008217930719F42FEF3FEF05C0E20FF31F8081282F30E0C9010895DC011296ED914D
:200D8000FC911397DF01AE57BF4F2D913C911197E058FF4F80819181E058F04082179307C2
:200DA00019F42FEF3FEF0BC0E20FF31F80812F5F3F4F2F7730702D933C93282F30E0C901E9
:200DC0000895DC011296ED91FC911397EE57FF4F80819181929382930895FC01A085B18567
:200DE00021898C9190E0022E02C0959587950A94E2F780FFF6CF0484F585E02D608308953A
:200E000080E191E09093C2018093C1018DE391E09093C4018093C30185EC90E09093C601DA
:200E20008093C50184EC90E09093C8018093C70180EC90E09093CA018093C90181EC90E0AE
:200E40009093CC018093CB0186EC90E09093CE018093CD0184E08093CF0183E08093D00180
:200E600087E08093D10185E08093D20181E08093D30108950E94F8040E94EF030E949E0381
:200E8000FDCF0F931F93CF93DF938C01EB0109C02196D801ED91FC910190F081E02DC801A9
:200EA000099568816623A1F7DF91CF911F910F910895EF92FF920F931F93CF93DF938C0106
:200EC0007B01EA010CC0D7016D917D01D801ED91FC910190F081E02DC801099521972097C2
:200EE00091F7DF91CF911F910F91FF90EF9008952F923F924F925F926F927F928F929F92D7
:200F0000AF92BF92CF92DF92EF92FF920F931F93DF93CF93CDB7DEB73B014C0119012A014C
:200F20006D897E898F89988D6A197B098C099D09621A730A840A950AA40193010E94C1076C
:200F4000E218F30804091509A80197010E9402082A0D3B1D4C1D5D1DB901CA01CF91DF91BD
:200F60001F910F91FF90EF90DF90CF90BF90AF909F908F907F906F905F904F903F902F90FF
:200F80000895629FD001739FF001829FE00DF11D649FE00DF11D929FF00D839FF00D749F65
:200FA000F00D659FF00D9927729FB00DE11DF91F639FB00DE11DF91FBD01CF01112408955A
:200FC000A1E21A2EAA1BBB1BFD010DC0AA1FBB1FEE1FFF1FA217B307E407F50720F0A21BEB
:200FE000B30BE40BF50B661F771F881F991F1A9469F760957095809590959B01AC01BD0181
:20100000CF01089597FB092E05260ED057FD04D0D7DF0AD0001C38F450954095309521955C
:201020003F4F4F4F5F4F0895F6F790958095709561957F4F8F4F9F4F0895EE0FFF1F059030
:20104000F491E02D0994F894FFCF0100002D05280A230F1E141900000000ED06410759078A
:201060009206BD06A306E106FFFFFFFFFFFFFFFFFFFFFFFFFFFFFFFFFFFFFFFFFFFFFFFF9D
:20108000FFFFFFFFFFFFFFFFFFFFFFFFFFFFFFFFFFFFFFFFFFFFFFFFFFFFFFFFFFFFFFFF70
:2010A000FFFFFFFFFFFFFFFFFFFFFFFFFFFFFFFFFFFFFFFFFFFFFFFFFFFFFFFFFFFFFFFF50
:2010C000FFFFFFFFFFFFFFFFFFFFFFFFFFFFFFFFFFFFFFFFFFFFFFFFFFFFFFFFFFFFFFFF30
:2010E000FFFFFFFFFFFFFFFFFFFFFFFFFFFFFFFFFFFFFFFFFFFFFFFFFFFFFFFFFFFFFFFF10
:207800000C94343C0C94513C0C94513C0C94513C0C94513C0C94513C0C94513C0C94513C1D
:207820000C94513C0C94513C0C94513C0C94513C0C94513C0C94513C0C94513C0C94513CE0
:207840000C94513C0C94513C0C94513C0C94513C0C94513C0C94513C0C94513C0C94513CC0
:207860000C94513C0C94513C11241FBECFEFD8E0DEBFCDBF11E0A0E0B1E0ECE9FFE702C07E
:2078800005900D92A230B107D9F712E0A2E0B1E001C01D92AD30B107E1F70E942D3D0C94CC
:2078A000CC3F0C94003C982F9595959595959595905D8F708A307CF0282F295A8091C000B5
:2078C00085FFFCCF9093C6008091C00085FFFCCF2093C6000895282F205DF0CF982F8091CF
:2078E000C00085FFFCCF9093C6000895EF92FF920F931F93EE24FF2487018091C00087FD7B
:2079000017C00894E11CF11C011D111D81E4E81682E4F8068FE0080780E0180770F3E09106
:207920000401F091050109958091C00087FFE9CF8091C6001F910F91FF90EF9008950E949A
:20794000763C982F8091C00085FFFCCF9093C60091362CF490330CF09053892F08959755DB
:20796000892F08951F930E949F3C182F0E949F3C1295107F810F1F9108951F93182F882308
:2079800021F00E94763C1150E1F71F9108951F93182F0E94763C803249F0809103018F5FC1
:2079A000809303018530C1F01F9108958091C00085FFFCCF84E18093C6008091C00085FF4A
:2079C000FCCF1093C6008091C00085FFFCCF80E18093C6001F910895E0910401F0910501CF
:2079E00009951F9108950E94763C803241F0809103018F5F80930301853081F00895809177
:207A0000C00085FFFCCF84E18093C6008091C00085FFFCCF80E18093C6000895E0910401AC
:207A2000F09105010995089540E951E08823A1F02D9A28EE33E0FA013197F1F72150304072
:207A4000D1F72D9828EE33E0FA013197F1F721503040D1F7815061F708953F924F925F92B3
:207A60006F927F928F929F92AF92BF92CF92DF92EF92FF920F931F93CF93DF93000080E1A3
:207A80008093C4001092C50088E18093C10086E08093C2005098589A259A81E00E94143D43
:207AA00024E1F22E9EE1E92E85E9D82E0FE0C02E10E1B12EAA24A394B1E49B2EA6E58A2E44
:207AC000F2E57F2EE0E26E2E79E4572E63E5462E50E5352E0E94763C8033B1F18133B9F187
:207AE000803409F46FC0813409F476C0823409F485C0853409F488C0803531F1823521F128
:207B0000813511F1853509F485C0863509F48DC0843609F496C0843709F403C1853709F46A
:207B200072C1863709F466C0809103018F5F80930301853079F6E0910401F0910501099559
:207B40000E94763C803351F60E94F33CC3CF0E94763C803249F78091C00085FFFCCFF0928C
:207B6000C6008091C00085FFFCCF9092C6008091C00085FFFCCF8092C6008091C00085FFEA
:207B8000FCCF7092C6008091C00085FFFCCF6092C6008091C00085FFFCCF5092C6008091A1
:207BA000C00085FFFCCF4092C6008091C00085FFFCCF3092C6008091C00085FFFCCFB09214
:207BC000C60088CF0E94763C863808F4BDCF0E94763C0E94F33C7ECF0E94763C803809F473
:207BE0009CC0813809F40BC1823809F43CC1883909F48FC080E00E94C73C6CCF84E10E949F
:207C0000BD3C0E94F33C66CF85E00E94BD3C0E94F33C60CF0E94763C809306010E94763CA3
:207C2000809307010E94F33C55CF0E94763C803309F41DC183E00E94BD3C80E00E94C73C4F
:207C400049CF0E94763C809309020E94763C8093080280910C028E7F80930C020E94763C88
:207C6000853409F415C18091080290910902892B89F000E010E00E94763CF801E85FFE4F53
:207C800080830F5F1F4F80910802909109020817190788F30E94763C803209F045CF8091E0
:207CA0000C0280FF01C16091060170910701660F771F7093070160930601A0910802B091E8
:207CC00009021097C9F0E8E0F1E09B01AD014E0F5F1FF999FECF32BD21BD819180BDFA9A6C
:207CE000F99A2F5F3F4FE417F50799F76A0F7B1F70930701609306018091C00085FFFCCF16
:207D0000F092C6008091C00085FFFCCFB092C600E1CE83E00E94C73CDDCE82E00E94C73C8A
:207D2000D9CE0E94763C809309020E94763C809308028091060190910701880F991F909306
:207D40000701809306010E94763C853409F4A6C080910C028E7F80930C020E94763C80323E
:207D600009F0B8CE8091C00085FFFCCFF092C600609108027091090261157105B9F140E05F
:207D800050E080910C02A82FA170B82FB27011C0BB2309F45CC0E0910601F0910701319613
:207DA000F0930701E09306014F5F5F4F46175707E8F4AA2369F3F999FECF209106013091CA
:207DC000070132BD21BDF89A90B58091C00085FFFCCF9093C6002F5F3F4F30930701209354
:207DE00006014F5F5F4F4617570718F38091C00085FDE5CE8091C00085FFF8CFE0CE81E029
:207E00000E94C73C67CE0E94763C803209F08CCE8091C00085FFFCCFF092C6008091C000F6
:207E200085FFFCCFE092C6008091C00085FFFCCFD092C6008091C00085FFFCCFC092C6003B
:207E40008091C00085FFFCCFB092C60043CEE0910601F091070194918091C00085FFFCCFA3
:207E60009093C6009CCF80E10E94C73C33CE0E94763C0E94763C182F0E94763C112309F433
:207E800083C0113009F484C08FE00E94C73C22CE80910C02816080930C02E5CE80910C0226
:207EA000816080930C0259CF809107018823880F880B8A2180930B0280910601909107019E
:207EC000880F991F90930701809306018091080280FF09C0809108029091090201969093AA
:207EE000090280930802F894F999FECF1127E0910601F0910701C8E0D1E0809108029091A1
:207F00000902103091F40091570001700130D9F303E000935700E895009157000170013067
:207F2000D9F301E100935700E895099019900091570001700130D9F301E000935700E8954C
:207F40001395103498F011270091570001700130D9F305E000935700E8950091570001707A
:207F60000130D9F301E100935700E8953296029709F0C7CF103011F00296E5CF11248091F8
:1E7F8000C00085FFB9CEBCCE8EE10E94C73CA2CD85E90E94C73C9ECDF894FFCF8000B3
:00000001FF
