:200000000C9462000C94D1050C94FE050C948A000C948A000C948A000C948A000C948A00F3
:200020000C948A000C948A000C948A000C948A000C948A000C94E7020C948A000C948A0011
:200040000C942B060C948A000C9450080C948A000C948A000C948A000C948A000C948A00DB
:200060000C948A000C948A0000000000240027002A0000000000250028002B00000000003F
:20008000230026002900040404040404040402020202020203030303030301020408102071
:2000A0004080010204081020010204081020000000070002010000030406000000000000EB
:2000C00000004C0911241FBECFEFD8E0DEBFCDBF11E0A0E0B1E0EAE0F5E102C005900D9282
:2000E000AC31B107D9F711E0ACE1B1E001C01D92A83EB107E1F710E0C4ECD0E004C02297D9
:20010000FE010E947F0AC23CD107C9F70E9486090C94830A0C94000080913701813019F41A
:2001200082E08093370180913701833019F484E08093370108955C9A42985C9898E010C0B1
:2001400087FF07C042980000419A0000429A000006C04298000041980000429A0000880FD5
:20016000915070F7429808958F770E949B000895429898E010C087FF07C042980000419ABC
:200180000000429A000006C04298000041980000429A0000880F915070F7429808951F9326
:2001A000162F80680E949B00812F0E94B8005C9A1F910895809138018F5F8093380187304D
:2001C00010F010923801E0913801F0E0E050FF4F89E760810E94CF000895429880E090E043
:2001E000880F429A000030998160429800009F5F9830B1F708950E94B4000E94ED005C9A22
:20020000089583E00E94FB0080933F0184E00E94FB008093400186E060E00E94CF0087E01B
:2002200061E00E94CF0089E06FE70E94CF008AE065E00E94CF008BE062E10E94CF008CE031
:2002400065E10E94CF008DE06DEF0E94CF008EE060E00E94CF0080E76CE20E94CF008EE6F4
:2002600067E20E94CF008FE662E50E94CF008CE16AE10E94CF0080E261EA0E94CF0081E2ED
:2002800060E20E94CF0082E26EE40E94CF0083E265EA0E94CF0084E260E00E94CF0085E2E1
:2002A0006BE10E94CF008DE160E40E94CF008EE16AE00E94CF008AE26EE10E94CF0080E3A5
:2002C0006CE80E94CF0082E363EF0E94CF0083E362E40E94CF0084E369E00E94CF0086E38A
:2002E0006DE20E94CF0087E364ED0E94CF0088E360E00E94CF0089E360E00E94CF008AE36C
:2003000064E40E94CF008BE36FE60E94CF008CE36DE40E94CF008DE36FE60E94CF008EE318
:2003200068E00E94CF008FE364E40E94CF0080E46FE60E94CF0081E46DE40E94CF0082E422
:200340006FE60E94CF0083E46FEF0E94CF0084E46FEF0E94CF0085E46FEF0E94CF0086E4C8
:200360006FEF0E94CF008DE667E00E94CF0089E760E00E94CF008AE766E00E94CF0081E7D2
:2003800063E20E94CF0082E760E30E94CF0083E760E00E94CF0084E760E00E94CF0085E7E7
:2003A00063E50E94CF0086E76DE70E94CF0087E760E00E94CF00089587E061E00E94CF007D
:2003C0008EE764E20E94CF0088E063E00E94CF0088E060E00E94CF0087E065E00E94CF009F
:2003E00085E062E00E94CF0083E00E94FB0080933F0184E00E94FB0080934001089583E03D
:200400000E94FB0080933F0184E00E94FB008093400187E061E00E94CF000895EF92FF92CF
:200420000F931F932AE030E040E050E00E94620A79018A0188E098E5AFEFBFEFE80EF91EAD
:200440000A1F1B1F96E0EE0CFF1C001F111F9A95D1F7552717FD5A95412F302F2F2D86E751
:20046000622F0E94CF0087E76E2D0E94CF001F910F91FF90EF9008950E94FF0162E370E0CE
:2004800080E090E00E9481060E94DC01000008951F93CF93DF93EC0110E00FC064E670E07B
:2004A00080E090E00E948106439A64E670E080E090E00E94810643981F5F812F90E08C17B7
:2004C0009D0760F3DF91CF911F91089587E060E00E947F0787E061E00E94A50785E061E09D
:2004E0000E94A50781E090E00E94DA0687E00E94FD07019799F485E060E00E94A50781E0D5
:2005000090E00E94DA0687E00E94FD07892B31F487E061E00E947F0781E0089587E061E08D
:200520000E947F0780E008950F931F9303E411E0C8016BE070E040911F010E94A205C80103
:200540006CE070E0409120010E94A205C8016DE070E0409121010E94A205C8016EE070E0BB
:20056000409122010E94A205C8016FE070E0409123010E94A205C80160E170E04091240148
:200580000E94A205C80161E170E0409125010E94A205C80162E170E0409126010E94A205DA
:2005A0001F910F910895CF93DF93CBE0D0E083E491E0BE010E949B05FE01EC5EFE4F8083AD
:2005C0002196C331D10599F7DF91CF9108951F920F920FB60F921124AF92BF92CF92DF924C
:2005E000EF92FF920F931F932F933F934F935F936F937F938F939F93AF93BF93EF93FF931D
:2006000085B1807E85B98BB187718BB9809142018F5F80934201893030F010922A01109210
:20062000290110924201E0914201E83049F460E47CE98091290190912A01681B790B28C083
:2006400000D000D0F0E0E15EFE4F608170E080E090E023E931E140E050E0EDB7FEB7218332
:2006600032834383548320E030E040E050E0FFEFEF2EF12C012D112DEDEDAE2EE5E0BE2ECD
:20068000C12CD12C0E94C4090F900F900F900F908091290190912A01860F971F90932A0165
:2006A0008093290180914101882321F5809142018330B1F0843028F4813071F0823070F449
:2006C00009C0853089F0853068F0863079F0873099F40EC05D9A10C05E9A0EC05F9A0CC093
:2006E000289A0AC0299A08C02A9A06C02B9A04C02C9A02C088E085B980E49CE9861B970B76
:200700009093850080938400FF91EF91BF91AF919F918F917F916F915F914F913F912F913A
:200720001F910F91FF90EF90DF90CF90BF90AF900F900FBE0F901F9018952F923F924F9225
:200740005F926F927F928F929F92AF92BF92CF92DF92EF92FF920F931F93CF93DF930E9404
:200760006602809341010E94D30280914101813021F486E090E00E944802439A0E940101E9
:2007800068E373EA86E090E00E940E020E943C02789483E0809337010E94730660932F0151
:2007A0007093300180933101909332016093330170933401809335019093360110923B018A
:2007C00010923A0103E0402E552453941FEF612E712C812C912CB1E02B2E312CC8E2D0E046
:2007E0000E94730660932F017093300180933101909332018CE00E94FB00882321F40E9481
:2008000001010E943C0280913701843009F0BEC04092370180912F0190913001A091310182
:20082000B09132018093330190933401A0933501B093360110923D0110923C0180913A01B7
:2008400090913B01892B21F430923B0120923A0143982D9A8FE70E94B4000E94ED00809377
:200860001F010E94ED00809320010E94ED00809321010E94ED00809322010E94ED0080936A
:2008800023010E94ED00809324010E94ED0080931C010E94ED00982F80931D0120911C0159
:2008A000222349F4882339F480911E01882319F450921E010CC020932501909326018091F5
:2008C0001E01813021F40E94940210921E0100912B0110912C0186E20E94FB00080F111D65
:2008E00010932C0100932B010E94DC01809139018F5F809339018B3008F441C080912B016F
:2009000090912C016AE070E00E942C0A70932C0160932B016D32710528F46DE270E080E098
:2009200090E007C06937710510F068E770E080E090E000D000D0EDB7FEB761827282838226
:20094000948228E230E040E050E0A8E7EA2EF12C012D112DAA24BB2465010E94C4099B01C9
:20096000AC010F900F900F900F9083E0B9010E941F0710922C0110922B011092390150920E
:200980003E0110922E0110922D012D98E0902F01F0903001009131011091320160912D01AB
:2009A00070912E018091330190913401A0913501B0913601A8019701281B390B4A0B5B0B0A
:2009C000CE01861B970BA0E0B0E082179307A407B507D0F520913A0130913B012130310526
:2009E00099F5439AE0923301F0923401009335011093360180913C0190913D010196909325
:200A00003D0180933C01823091055CF0672B29F430932E0120932D0104C010922E011092FB
:200A20002D0150923E014A977CF010922E0110922D0110923B0110923A010E94D30283E0E4
:200A400060E070E00E941F0780913E01813009F0C7CE0E94DA0010923E01C2CE8DE061E014
:200A60000E947F0781E161E00E947F078EE060E00E947F078FE061E00E947F0780E161E033
:200A80000E947F0782E060E00E947F0784E061E00E947F0780E060E00E947F0781E061E02D
:200AA0000E947F0783E061E00E947F0785E061E00E947F0786E061E00E947F0787E061E0FD
:200AC0000E947F0788E061E00E947F0789E061E00E947F078AE061E00E947F078BE061E0CC
:200AE0000E947F078CE061E00E947F0785ED91E040E052EC61E070E00E948108E1E8F0E063
:200B00001082109285001092840080E49CE9909387008093860082E0809380008AE1808367
:200B200081E080936F0080E06CE870E042E050E00E94AE050895F999FECF72BD61BDF89A4C
:200B400080B50895F999FECF1FBA72BD61BD40BD0FB6F894FA9AF99A0FBE0895823000F5B8
:200B6000E82FF0E0EE0FFF1FEC5BFE4F71836083882319F08130A1F408C0809169008C7FC1
:200B8000842B80936900E89A089580916900440F551F440F551F837F842B80936900E99A53
:200BA00008951F920F920FB60F9211242F933F934F935F936F937F938F939F93AF93BF9347
:200BC000EF93FF938091440190914501892B29F0E0914401F09145010995FF91EF91BF91FC
:200BE000AF919F918F917F916F915F914F913F912F910F900FBE0F901F9018951F920F923C
:200C00000FB60F9211242F933F934F935F936F937F938F939F93AF93BF93EF93FF938091B0
:200C2000460190914701892B29F0E0914601F09147010995FF91EF91BF91AF919F918F9128
:200C40007F916F915F914F913F912F910F900FBE0F901F9018951F920F920FB60F921124D0
:200C60002F933F938F939F93AF93BF9380914C0190914D01A0914E01B0914F013091500108
:200C80000196A11DB11D232F2D5F2D3720F02D570196A11DB11D2093500180934C019093B1
:200CA0004D01A0934E01B0934F018091480190914901A0914A01B0914B010196A11DB11DE0
:200CC0008093480190934901A0934A01B0934B01BF91AF919F918F913F912F910F900FBE62
:200CE0000F901F9018958FB7F89420914C0130914D0140914E0150914F018FBFB901CA01F6
:200D000008959B01AC017FB7F8948091480190914901A0914A01B0914B0166B5A89B05C03A
:200D20006F3F19F00196A11DB11D7FBFBA2FA92F982F8827860F911DA11DB11D62E0880FBC
:200D4000991FAA1FBB1F6A95D1F7BC012DC0FFB7F8948091480190914901A0914A01B09103
:200D60004B01E6B5A89B05C0EF3F19F00196A11DB11DFFBFBA2FA92F982F88278E0F911DEA
:200D8000A11DB11DE2E0880F991FAA1FBB1FEA95D1F7861B970B885E9340C8F22150304035
:200DA0004040504068517C4F211531054105510571F60895019739F0880F991F880F991F34
:200DC00002970197F1F70895789484B5826084BD84B5816084BD85B5826085BD85B5816021
:200DE00085BDEEE6F0E0808181608083E1E8F0E01082808182608083808181608083E0E86A
:200E0000F0E0808181608083E1EBF0E0808184608083E0EBF0E0808181608083EAE7F0E078
:200E20008081846080838081826080838081816080838081806880831092C10008951F9361
:200E4000CF93DF93182FEB0161E00E947F07209709F44AC0CF3FD10509F449C0E12FF0E09A
:200E6000E255FF4F84918330C1F0843028F4813051F08230B1F50CC0863019F1873049F1DD
:200E8000843079F514C084B5806884BDC7BD33C084B5806284BDC8BD2EC08091800080683B
:200EA00080938000D0938900C093880024C080918000806280938000D0938B00C0938A0023
:200EC0001AC08091B00080688093B000C093B30012C08091B00080628093B000C093B40087
:200EE0000AC0C038D1051CF4812F60E002C0812F61E00E94A507DF91CF911F910895482FC5
:200F000050E0CA0186569F4FFC0124914A575F4FFA0184918823C1F0E82FF0E0EE0FFF1F9D
:200F2000E859FF4FA591B491662341F49FB7F8948C91209582238C939FBF08959FB7F89494
:200F40008C91822B8C939FBF0895482F50E0CA0182559F4FFC012491CA0186569F4FFC0132
:200F600034914A575F4FFA019491992309F444C0222351F1233071F0243028F42130A1F0F3
:200F8000223011F514C02630B1F02730C1F02430D9F404C0809180008F7703C08091800056
:200FA0008F7D8093800010C084B58F7702C084B58F7D84BD09C08091B0008F7703C08091D7
:200FC000B0008F7D8093B000E92FF0E0EE0FFF1FEE58FF4FA591B491662341F49FB7F894E0
:200FE0008C91309583238C939FBF08959FB7F8948C91832B8C939FBF0895682F70E0CB01D5
:2010000082559F4FFC012491CB0186569F4FFC0144916A577F4FFB019491992319F420E078
:2010200030E03CC0222351F1233071F0243028F42130A1F0223011F514C02630B1F027309D
:20104000C1F02430D9F404C0809180008F7703C0809180008F7D8093800010C084B58F7761
:2010600002C084B58F7D84BD09C08091B0008F7703C08091B0008F7D8093B000892F90E01D
:20108000880F991F84589F4FFC01A591B4918C9120E030E0842311F021E030E0C901089572
:2010A0001F920F920FB60F9211242F933F934F938F939F93EF93FF934091C600E091D1018B
:2010C000F091D20131969F012F77307031978091D3019091D4012817390739F0EF5AFE4F2E
:2010E00040833093D2012093D101FF91EF919F918F914F913F912F910F900FBE0F901F9088
:201100001895CF93DF93EC019A01AB01E885F985203081EE380780E0480780E0580709F4C6
:2011200049C081E090E00A8802C0880F991F0A94E2F7808360E079E08DE390E00E94620A31
:201140002150304040405040CA01B90122E030E040E050E00E94620AEC81FD813083EE819C
:20116000FF812083EA85FB85208141E050E0CA010E8402C0880F991F0A94E2F7282B208390
:20118000EA85FB852081CA010F8402C0880F991F0A94E2F7282B2083EA85FB858081088863
:2011A00002C0440F551F0A94E2F7842B8083DF91CF910895108220E130E0CECFDC0112964B
:2011C000ED91FC911397E058FF4F2191319180819181281B390B2F773070C9010895DC013C
:2011E0001296ED91FC911397EE57FF4F2081318192918291E058F0408217930719F42FEFB0
:201200003FEF05C0E20FF31F8081282F30E0C9010895DC011296ED91FC911397DF01AE57EA
:20122000BF4F2D913C911197E058FF4F80819181E058F0408217930719F42FEF3FEF0BC015
:20124000E20FF31F80812F5F3F4F2F7730702D933C93282F30E0C9010895DC011296ED91C8
:20126000FC911397EE57FF4F80819181929382930895FC01A085B18521898C9190E0022EFB
:2012800002C0959587950A94E2F780FFF6CF0484F585E02D608308958EE091E09093D60123
:2012A0008093D50181E591E09093D8018093D70185EC90E09093DA018093D90184EC90E0DB
:2012C0009093DC018093DB0180EC90E09093DE018093DD0181EC90E09093E0018093DF017C
:2012E00086EC90E09093E2018093E10184E08093E30183E08093E40187E08093E50185E096
:201300008093E60181E08093E70108950E94E4060E942E050E949D03FDCF0F931F93CF93B5
:20132000DF938C01EB0109C02196D801ED91FC910190F081E02DC801099568816623A1F7DE
:20134000DF91CF911F910F910895EF92FF920F931F93CF93DF938C017B01EA010CC0D701FE
:201360006D917D01D801ED91FC910190F081E02DC80109952197209791F7DF91CF911F9120
:201380000F91FF90EF9008952F923F924F925F926F927F928F929F92AF92BF92CF92DF92D6
:2013A000EF92FF920F931F93DF93CF93CDB7DEB73B014C0119012A016D897E898F89988DD2
:2013C0006A197B098C099D09621A730A840A950AA40193010E940D0AE218F3080409150993
:2013E000A80197010E94620A2A0D3B1D4C1D5D1DB901CA01CF91DF911F910F91FF90EF9079
:20140000DF90CF90BF90AF909F908F907F906F905F904F903F902F900895629FD001739F37
:20142000F001829FE00DF11D649FE00DF11D929FF00D839FF00D749FF00D659FF00D992783
:20144000729FB00DE11DF91F639FB00DE11DF91FBD01CF0111240895AA1BBB1B51E107C0DF
:20146000AA1FBB1FA617B70710F0A61BB70B881F991F5A95A9F780959095BC01CD0108957B
:20148000A1E21A2EAA1BBB1BFD010DC0AA1FBB1FEE1FFF1FA217B307E407F50720F0A21B26
:2014A000B30BE40BF50B661F771F881F991F1A9469F760957095809590959B01AC01BD01BC
:2014C000CF01089597FB092E05260ED057FD04D0D7DF0AD0001C38F4509540953095219598
:2014E0003F4F4F4F5F4F0895F6F790958095709561957F4F8F4F9F4F0895EE0FFF1F05906C
:20150000F491E02D0994F894FFCF002D05280A230F1E14190000000039098D09A509DE08F5
:201520000909EF082D09FFFFFFFFFFFFFFFFFFFFFFFFFFFFFFFFFFFFFFFFFFFFFFFFFFFF86
:20154000FFFFFFFFFFFFFFFFFFFFFFFFFFFFFFFFFFFFFFFFFFFFFFFFFFFFFFFFFFFFFFFFAB
:20156000FFFFFFFFFFFFFFFFFFFFFFFFFFFFFFFFFFFFFFFFFFFFFFFFFFFFFFFFFFFFFFFF8B
:20158000FFFFFFFFFFFFFFFFFFFFFFFFFFFFFFFFFFFFFFFFFFFFFFFFFFFFFFFFFFFFFFFF6B
:2015A000FFFFFFFFFFFFFFFFFFFFFFFFFFFFFFFFFFFFFFFFFFFFFFFFFFFFFFFFFFFFFFFF4B
:207800000C94343C0C94513C0C94513C0C94513C0C94513C0C94513C0C94513C0C94513C1D
:207820000C94513C0C94513C0C94513C0C94513C0C94513C0C94513C0C94513C0C94513CE0
:207840000C94513C0C94513C0C94513C0C94513C0C94513C0C94513C0C94513C0C94513CC0
:207860000C94513C0C94513C11241FBECFEFD8E0DEBFCDBF11E0A0E0B1E0ECE9FFE702C07E
:2078800005900D92A230B107D9F712E0A2E0B1E001C01D92AD30B107E1F70E942D3D0C94CC
:2078A000CC3F0C94003C982F9595959595959595905D8F708A307CF0282F295A8091C000B5
:2078C00085FFFCCF9093C6008091C00085FFFCCF2093C6000895282F205DF0CF982F8091CF
:2078E000C00085FFFCCF9093C6000895EF92FF920F931F93EE24FF2487018091C00087FD7B
:2079000017C00894E11CF11C011D111D81E4E81682E4F8068FE0080780E0180770F3E09106
:207920000401F091050109958091C00087FFE9CF8091C6001F910F91FF90EF9008950E949A
:20794000763C982F8091C00085FFFCCF9093C60091362CF490330CF09053892F08959755DB
:20796000892F08951F930E949F3C182F0E949F3C1295107F810F1F9108951F93182F882308
:2079800021F00E94763C1150E1F71F9108951F93182F0E94763C803249F0809103018F5FC1
:2079A000809303018530C1F01F9108958091C00085FFFCCF84E18093C6008091C00085FF4A
:2079C000FCCF1093C6008091C00085FFFCCF80E18093C6001F910895E0910401F0910501CF
:2079E00009951F9108950E94763C803241F0809103018F5F80930301853081F00895809177
:207A0000C00085FFFCCF84E18093C6008091C00085FFFCCF80E18093C6000895E0910401AC
:207A2000F09105010995089540E951E08823A1F02D9A28EE33E0FA013197F1F72150304072
:207A4000D1F72D9828EE33E0FA013197F1F721503040D1F7815061F708953F924F925F92B3
:207A60006F927F928F929F92AF92BF92CF92DF92EF92FF920F931F93CF93DF93000080E1A3
:207A80008093C4001092C50088E18093C10086E08093C2005098589A259A81E00E94143D43
:207AA00024E1F22E9EE1E92E85E9D82E0FE0C02E10E1B12EAA24A394B1E49B2EA6E58A2E44
:207AC000F2E57F2EE0E26E2E79E4572E63E5462E50E5352E0E94763C8033B1F18133B9F187
:207AE000803409F46FC0813409F476C0823409F485C0853409F488C0803531F1823521F128
:207B0000813511F1853509F485C0863509F48DC0843609F496C0843709F403C1853709F46A
:207B200072C1863709F466C0809103018F5F80930301853079F6E0910401F0910501099559
:207B40000E94763C803351F60E94F33CC3CF0E94763C803249F78091C00085FFFCCFF0928C
:207B6000C6008091C00085FFFCCF9092C6008091C00085FFFCCF8092C6008091C00085FFEA
:207B8000FCCF7092C6008091C00085FFFCCF6092C6008091C00085FFFCCF5092C6008091A1
:207BA000C00085FFFCCF4092C6008091C00085FFFCCF3092C6008091C00085FFFCCFB09214
:207BC000C60088CF0E94763C863808F4BDCF0E94763C0E94F33C7ECF0E94763C803809F473
:207BE0009CC0813809F40BC1823809F43CC1883909F48FC080E00E94C73C6CCF84E10E949F
:207C0000BD3C0E94F33C66CF85E00E94BD3C0E94F33C60CF0E94763C809306010E94763CA3
:207C2000809307010E94F33C55CF0E94763C803309F41DC183E00E94BD3C80E00E94C73C4F
:207C400049CF0E94763C809309020E94763C8093080280910C028E7F80930C020E94763C88
:207C6000853409F415C18091080290910902892B89F000E010E00E94763CF801E85FFE4F53
:207C800080830F5F1F4F80910802909109020817190788F30E94763C803209F045CF8091E0
:207CA0000C0280FF01C16091060170910701660F771F7093070160930601A0910802B091E8
:207CC00009021097C9F0E8E0F1E09B01AD014E0F5F1FF999FECF32BD21BD819180BDFA9A6C
:207CE000F99A2F5F3F4FE417F50799F76A0F7B1F70930701609306018091C00085FFFCCF16
:207D0000F092C6008091C00085FFFCCFB092C600E1CE83E00E94C73CDDCE82E00E94C73C8A
:207D2000D9CE0E94763C809309020E94763C809308028091060190910701880F991F909306
:207D40000701809306010E94763C853409F4A6C080910C028E7F80930C020E94763C80323E
:207D600009F0B8CE8091C00085FFFCCFF092C600609108027091090261157105B9F140E05F
:207D800050E080910C02A82FA170B82FB27011C0BB2309F45CC0E0910601F0910701319613
:207DA000F0930701E09306014F5F5F4F46175707E8F4AA2369F3F999FECF209106013091CA
:207DC000070132BD21BDF89A90B58091C00085FFFCCF9093C6002F5F3F4F30930701209354
:207DE00006014F5F5F4F4617570718F38091C00085FDE5CE8091C00085FFF8CFE0CE81E029
:207E00000E94C73C67CE0E94763C803209F08CCE8091C00085FFFCCFF092C6008091C000F6
:207E200085FFFCCFE092C6008091C00085FFFCCFD092C6008091C00085FFFCCFC092C6003B
:207E40008091C00085FFFCCFB092C60043CEE0910601F091070194918091C00085FFFCCFA3
:207E60009093C6009CCF80E10E94C73C33CE0E94763C0E94763C182F0E94763C112309F433
:207E800083C0113009F484C08FE00E94C73C22CE80910C02816080930C02E5CE80910C0226
:207EA000816080930C0259CF809107018823880F880B8A2180930B0280910601909107019E
:207EC000880F991F90930701809306018091080280FF09C0809108029091090201969093AA
:207EE000090280930802F894F999FECF1127E0910601F0910701C8E0D1E0809108029091A1
:207F00000902103091F40091570001700130D9F303E000935700E895009157000170013067
:207F2000D9F301E100935700E895099019900091570001700130D9F301E000935700E8954C
:207F40001395103498F011270091570001700130D9F305E000935700E8950091570001707A
:207F60000130D9F301E100935700E8953296029709F0C7CF103011F00296E5CF11248091F8
:1E7F8000C00085FFB9CEBCCE8EE10E94C73CA2CD85E90E94C73C9ECDF894FFCF8000B3
:00000001FF
